:020000040800F2
:1000000000050020A10100087B1F0008C91B000893
:10001000791F00085D07000829270008000000007C
:10002000000000000000000000000000292100087E
:100030005F070008000000007D1F00082B2100085A
:10004000BB010008BB010008BB010008BB010008A0
:10005000BB010008BB010008BB010008BB01000890
:10006000BB010008BB010008BB010008BB01000880
:10007000BB010008BB010008BB010008BB01000870
:10008000BB010008BB010008BB010008BB01000860
:10009000BB010008BB010008BB010008BB01000850
:1000A000BB010008BB010008BB010008BB01000840
:1000B000F12100080000000000000000BB01000862
:1000C000BB0100080000000000000000BB010008A8
:1000D00000000000BB010008BB0100080000000098
:1000E000BB010008BB010008000000000000000088
:1000F0000000000000000000000000000000000000
:10010000000000000000000000000000BB0100082B
:100110000000000000000000BB010008BB01000857
:10012000BB010008BB010008BB010008BB010008BF
:10013000BB010008000000000000000000000000FB
:10014000BB010008BB010008BB010008BB0100089F
:10015000BB010008BB010008BB010008BB0100088F
:10016000BB010008BB010008BB0100080000000043
:10017000BB010008BB0100080000000000000000F7
:10018000BB010008BB010008BB010008DFF80CD070
:1001900000F0C0FA00480047613000080005002068
:1001A0000648804706480047FEE7FEE7FEE7FEE711
:1001B000FEE7FEE7FEE7FEE7FEE7FEE7AD2100080B
:1001C0008D0100082DE9F05F0546002092469B4610
:1001D00088460646814640241BE02846414647465D
:1001E000224600F04BF953465A46C01A914110D3AB
:1001F00011461846224600F032F92D1A67EB010825
:100200004F4622460120002100F029F917EB000992
:100210004E41201EA4F10104DFDC484631462A4647
:10022000434600F000B830BCBDE8C09FD2B201E048
:1002300000F8012B491EFBD270470022F6E710B5EB
:1002400013460A4604461946FFF7F0FF204610BD44
:100250002DE9FE4F81EA030404F0004421F000413F
:1002600000944FF0000B23F0004350EA01045ED0ED
:1002700052EA03045BD0C3F30A54C1F30A552C4479
:10028000A4F2F3340194A0FB0254C1F3130141F42E
:100290008011C3F3130343F4801301FB024400FBFA
:1002A000034E840A970A44EA815447EA8357A4FB21
:1002B000076802958D0A05FB07854FEA932C04FB1E
:1002C0000C542705029D4FEA065847EA1637B5EB4E
:1002D00008056EEB070C870E920E47EA811742EA7B
:1002E0008312A7FB0201B6EB0B0164EB00042B0D9C
:1002F00043EA0C335E1844EB1C50DA465146E7FBE8
:100300000201C5F313044FEA0B3343EA14534FEAD7
:100310000432019C43EA0603A4F10C040294009CFD
:10032000CDE900B400F0C9F803B000F003B8002034
:100330000146F9E730BCBDE8C08F2DE9F04D81EAF8
:10034000030404F0004B21F0004514464FF0000A6E
:1003500023F0004150EA050220D054EA01021DD0EA
:10036000C5F30A570246C5F31303C1F31300C1F3E3
:100370000A5640F4801543F48013A7EB0608101BBF
:10038000D64608F2FD3873EB050002D308F10108E8
:1003900001E092185B41B8F1000F03DA002001463A
:1003A000BDE8F08D00204FF48011064684460EE033
:1003B000171B73EB050705D3121B63EB05030643FD
:1003C0004CEA010C49084FEA300092185B4150EAB0
:1003D0000107EDD152EA030012D082EA040083EA59
:1003E0000501084305D0101BAB4106D201220023B2
:1003F00006E000224FF0004302E06FF001025310CC
:100400001AEB06004CEB085110EB0A0041EB0B0114
:10041000BDE8F04D00F042B80EB540F23341029114
:100420000021CDE900110A460B4600F046F803B062
:1004300000BD30B50B46014600202022012409E012
:1004400021FA02F59D4205D303FA02F5491B04FA8D
:1004500002F52844151EA2F10102F1DC30BD202A6C
:1004600004DB203A00FA02F1002070479140C2F10B
:10047000200320FA03F3194390407047202A04DB3D
:10048000203A21FA02F00021704721FA02F3D0400D
:10049000C2F12002914008431946704710B5141E5E
:1004A00073F1000408DA401C41F1000192185B412D
:1004B0001A4301D120F0010010BD2DE9F04D924604
:1004C0009B4611B1B1FA81F202E0B0FA80F220321B
:1004D0009046FFF7C4FF04460F4640EA0A0041EA8F
:1004E0000B0153465A46084313D0114653EA010004
:1004F00019D0C8F140025046FFF7C0FF05460E462E
:10050000504659464246FFF7AAFF084305D001204E
:1005100004E020463946BDE8F08D0020054346EA58
:10052000E0762C4337430A986305E40AA0EB080001
:100530000022FD0A44EA47540A3002D50020014651
:10054000E9E7010510196941DDE90845001969412C
:10055000BDE8F04DA2E72DE9FE4F804681EA030099
:10056000C00F0C46009021F0004123F00045B8EB8D
:100570000200A94105D24046214690461C460B4642
:10058000024623F00040104347D0270DC7F30A006E
:10059000C3F30A510290401A019040286BDAC3F36A
:1005A000130040F4801B0098924620B10023D2EB48
:1005B000030A63EB0B0B01985946C0F14002504609
:1005C000FFF74DFF06460D4650465946019A00F08A
:1005D000B3F810EB08006141002487EA115284EA65
:1005E000E7731A4340D0009A62B3019A012A4FEA96
:1005F000075215DC001B61EB02014FF0004202EADA
:100600000752CDE90042001C41F5801132462B46CD
:10061000FFF753FF03B000F045B840462146F9E725
:10062000001B61EB0201001C41F5801300185B41C7
:100630002018A2F5001747EB030140EAD570B61960
:100640006D4111E06D084FEA360645EAC0754FEA84
:100650000752001B61EB0201001C41F580114908A3
:100660004FEA30000019514132462B4603B000F0EA
:100670001CB8FFF713BF0098012240000023D0EB05
:10068000020263EBE073009821464FEAE074B8EB96
:10069000000061EB0401E9E783F000435BE781F0D0
:1006A000004158E730BCBDE8C08F30BCBDE8C04F4A
:1006B000FFF7DFBFC1F30A52C1F3130140F2FF336A
:1006C00041F480119A4202DA00200146704740F25C
:1006D00033439A42A2F2334202DC5242FFF7CEBECB
:1006E000FFF7BDBE30B5041E71F1000404DB4FF00E
:1006F0000044404264EB0101141E73F1000405DB69
:100700001C464FF00043524263EB0403994208BF7A
:10071000904230BD064C074D06E0E06840F0010312
:1007200094E8070098471034AC42F6D3FFF732FD47
:10073000C8310008E8310008202A06DBCB17203A30
:1007400041FA02F043EAE07306E041FA02F3D040D6
:10075000C2F120029140084319467047FEE77047F6
:1007600070B5044600F0DCF80546601C02D0044871
:100770004068044400F0D4F8401BA042FAD370BD96
:10078000300000202DE9F84FDFF870B10023012779
:100790004FF0030A4FF00F090BF1040EA7E000BF62
:1007A00007FA03F6324070D04C68022C01D0122CAC
:1007B00010D1DC0800EB8408D8F820405D074FEA30
:1007C000D56C09FA0CF5AC430D6905FA0CF5254317
:1007D000C8F82050D0F800805D0091F804C00AFAF3
:1007E00005F40CF0030C28EA04080CFA05FC4CEAAA
:1007F000080CC0F800C0D1F804C0BCF1010F08D04B
:10080000BCF1020F05D0BCF1110F02D0BCF1120FE8
:1008100016D1D0F808C0D1F80C802CEA040C08FAE4
:1008200005F848EA0C08C0F80880D0F804C02CEAA3
:10083000060C0E79C6F300169E4046EA0C0646608A
:10084000C668A6438C68AC403443C4604C68E4007E
:100850004CD52B4C256E45F001052566246E23F002
:10086000030504F001040094264C2E19B4689D077A
:100870004FEA157C09FA0CF5AC43B0F1904F05D066
:10088000214DA84204D1012508E02FE0002505E014
:100890001E4DA84201D1022500E0072505FA0CF5FE
:1008A0002543B560DBF800405D464E689443F6038F
:1008B00000D514432C60DEF8004075464E68944322
:1008C000B60300D514432C600C4D08352C684E68D7
:1008D0009443F60200D514432C60084D0C352C6867
:1008E0004E689443B60200D514432C605B1C0A6822
:1008F00032FA03F47FF454AF00F00AB80004014068
:1009000000100240000001400004004800080048B8
:1009100018BCBDE8E08F0AB1816170478162704701
:10092000014880687047000030000020024881685C
:1009300042681144816070473000002010B50024E7
:10094000032000F071F8002000F008F808B101243D
:1009500001E000F025F8204610BD000070B50E4EF5
:1009600005460024706898B14FF47A71B1FBF0F03D
:100970000A490968B1FBF0F000F092FD40B9102D72
:1009800006D200222946501E00F02EF8356000E005
:100990000124204670BD0000300000203C000020F3
:1009A000094808B5016E41F001010166016E01F0D0
:1009B00001010091816D41F080518165806D00F0F1
:1009C0008050009008BD000000100240002809DBA4
:1009D00000F01F02012191404009800000F1E02059
:1009E000C0F8001170470000F0B40E4B1B680C46B5
:1009F000C3F30223C3F10705042D00D90425191DF3
:100A0000072901D2002300E0DB1E012606FA05F1CA
:100A1000491E214099409E40761E16403143F0BC4D
:100A200001F098BE0CED00E0064900F007020868EE
:100A30004FF6FF03184040EA0220034A10430860C3
:100A4000704700000CED00E00000FA051649B0F513
:100A5000007F0868C0F3412009D0022805D008684B
:100A600020F4C06040F480600860002070470128D6
:100A7000FBD0086820F4C06040F4007008600B48A8
:100A80003222006850430A4AB0FBF2F0401C00E0FA
:100A9000401E4A69520501D50028F9D14869400530
:100AA000E3D5032070470000007000403C000020A8
:100AB00040420F000248006800F4C0607047000028
:100AC000007000400248016841F480710160704785
:100AD000007000400248016841F004010160704765
:100AE000001002402DE9F84F0446002700889C4D75
:100AF0003E46000515D5E06B60B1B0F5000F04D09F
:100B0000B0F5400F2BD001270AE0E86840F48030B0
:100B1000E86024E00021201D01F032FA07001ED019
:100B20003E462068800338D5A86D4FF00008C0000D
:100B300009D4A86D40F08050A865A86D4FF0010859
:100B400000F080500090DFF81CA2DAF8001041F4A9
:100B50008071CAF80010FFF7E3FE814610E0D5F877
:100B60008800E16B20F440000843C5F88800D8E70E
:100B7000FFF7D6FEA0EB0900022801D9032704E005
:100B8000DAF80000C005F3D5EFB33E46B8F1000F28
:100B900003D0A86D20F08050A8652078C00707D04A
:100BA000D5F88800216A20F003000843C5F88800C2
:100BB0002078800707D5D5F88800616A20F00C00FE
:100BC0000843C5F888002078800607D5D5F8880046
:100BD000A16A20F440600843C5F888002088800599
:100BE00007D5D5F88800616B20F440200843C5F88C
:100BF00088002088400509D5D5F88800A16B20F42D
:100C00004010084300E02EE0C5F888002078400638
:100C100007D5D5F88800E16A20F440500843C5F8AC
:100C200088002088C00507D5D5F88800216B20F4FE
:100C300040300843C5F8880020884FF000678004E2
:100C40004FF080684ED5D5F88800216C20F04060C8
:100C50000843C5F88800206CB8423BD1E86840F4EE
:100C60008010E8603EE0D5F8900010F4407014D099
:100C7000216D814211D0D5F89000D5F8901020F464
:100C8000407041F48031C5F89010D5F8901021F4EF
:100C90008031C5F89010C5F89000C00711D0FFF75B
:100CA0003FFE074641F2883907E000BFFFF738FEF4
:100CB000C11B494501D9032668E7D5F89000800794
:100CC000F4D5D5F89000216D20F440700843C5F8A4
:100CD00090005BE7404505D10121201D01F050F94E
:100CE00000B106462068400317D5D5F88800616C2E
:100CF00020F040600843C5F88800606CB84204D119
:100D0000E86840F48010E86007E0404505D1012123
:100D1000201D01F035F900B106462088400411D5A8
:100D2000D5F88800A16C20F040500843C5F8880031
:100D3000A06CB0F1805F05D10221201D01F020F9E7
:100D400000B106462088000406D555F8880FE16CEE
:100D500020F0804008432860304600F005B80000CD
:100D6000001002400070004018BCBDE8E08F000099
:100D70002DE9F0470F46050058D0404E306800F08E
:100D80000700B84209D2306820F0070038433060CD
:100D9000306800F00700B84248D12878384CC007C6
:100DA0002CD06868032811D0022812D0216898B18D
:100DB000490500293ADAA16821F003010143A16045
:100DC000FFF7AEFD804641F2883910E021688901C5
:100DD000EFE721688903ECE78907EAE7FFF7A0FD61
:100DE000A0EB0801494502D90320BDE8F087A068BF
:100DF000696800F00C00B0EB810FEFD12878800714
:100E000005D5A068A96820F0F0000843A06030680C
:100E100000F00700B8420BD9306820F007003843D3
:100E20003060306800F00700B84201D00120DCE7F4
:100E30002878400705D5A068E96820F4E0600843F9
:100E4000A0602878000706D5A068296920F46050C2
:100E500040EAC100A06000F03FF8A168094AC1F370
:100E60000311515C01F01F01C840074908600748A1
:100E70000068BDE8F047FFF771BD000000200240A8
:100E800000100240803100083C00002030000020AB
:100E90000548064900688968054AC1F30221515C8A
:100EA00001F01F01C84070473C00002000100240C4
:100EB000C03100080548064900688968054AC1F341
:100EC000C221515C01F01F01C84070473C00002066
:100ED00000100240C031000870B5254900231846B3
:100EE0008A68CC6812F00C0204F00306214C4FEA29
:100EF000640509D00C2A05D0042A32D0082A00D172
:100F0000284670BD012E10D10B681B0704D4D1F800
:100F10009430C3F3032302E00B68C3F30313164EAC
:100F200056F82330DAB10C2AEBD1C86800F0030080
:100F3000022818D0032818D01846CA68CB68C2F314
:100F40000212C3F306234343521CB3FBF2F2C868F8
:100F5000C0F34160401C4000B2FBF0F070BD184689
:100F600070BD204670BD2046E7E72846E5E7000053
:100F7000001002400024F400903100082DE9F843ED
:100F800004006ED0FD4DA86800F00C06E86800F083
:100F900003072078C00663D576B10C2E01D1012F4E
:100FA0000AD0A0690028286878D040F001002860A5
:100FB000FFF7B6FC80465BE02868800702D5A06991
:100FC0000028DED0216A2868000703D5286800F0D1
:100FD000F00004E0D5F89400F02202EA10108142FB
:100FE00016D9084601F062F800283AD1286840F086
:100FF000080028602868216A20F0F0000843286073
:101000006868E16920F47F4040EA0120686015E0EB
:10101000286840F0080028602868216A20F0F00065
:10102000084328606868E16920F47F4040EA0120B5
:101030006860206A01F03AF80028D6D1FFF74CFF2B
:10104000A968CF4AC1F30311515C01F01F01C840E8
:10105000CC490860CC480068FFF780FC00287DD1AF
:101060002DE0C9E0FFF75CFCA0EB0800022876D871
:1010700028688007F6D5286840F0080028602868AE
:10108000216A20F0F000084328606868E16920F4D4
:101090007F4040EA0120686011E0FFE720F0010096
:1010A0002860FFF73DFC804606E000BFFFF738FCF4
:1010B000A0EB08000228DAD828688007F6D4207848
:1010C000C00740D0082E18D00C2E01D1032F14D009
:1010D0006068B0F5803F17D0B0F5A02F286817D012
:1010E00020F480302860286820F480202860606820
:1010F000E0B1FFF715FC804614E02868800322D594
:101100006068002878D01EE0286840F48030EDE761
:1011100040F480202860F7E7FFF702FCA0EB08000E
:101120006428A4D828688003F6D50CE0FFF7F8FB04
:10113000804605E0FFF7F4FBA0EB0800642896D892
:1011400028688003F6D4207880073BD5042E11D080
:101150000C2E01D1022F0DD0E06801E064E1B8E06F
:10116000002828681ED040F480702860FFF7D8FB64
:1011700007460CE0286840050CD5E0680028C1D07F
:1011800008E000BFFFF7CCFBC01B022893D82868FB
:101190004005F7D56868217C20F0F85040EA0160EE
:1011A00068600FE020F480702860FFF7B9FB074605
:1011B00005E000BFFFF7B4FBC01B0228B1D82868C8
:1011C0004005F7D42078000729D560690028D5F8B4
:1011D000940012D040F00100C5F89400FFF7A0FB86
:1011E000074604E0FFF79CFBC01B022871D8D5F826
:1011F00094008007F6D512E04CE120F00100C5F81C
:101200009400FFF78DFB074605E000BFFFF788FB62
:10121000C01B02285DD8D5F894008007F6D420784A
:10122000400766D5A86D0027C00008D4A86D40F01F
:101230008050A865A86D012700F0805000905348A9
:101240000168C90512D40168814641F480710160CA
:10125000FFF766FB804605E0FFF762FBA0EB0800A6
:10126000022836D8D9F80000C005F5D5A0680128B5
:1012700016D00528D5F8900017D020F00100C5F849
:101280009000D5F8900020F0040000BFC5F8900051
:10129000A06841F28839C0B1FFF742FB80460FE0F9
:1012A000D5F8900040F00100F0E740F00400C5F8E8
:1012B0009000F5E7FFF734FBA0EB0801494508D89B
:1012C000D5F890008007F5D50EE0FFF729FB8046A2
:1012D00006E07CE0FFF724FBA0EB0801494576D847
:1012E000D5F890008007F5D41FB1A86D20F080508C
:1012F000A8652078800628D5606A0028D5F898006F
:1013000012D040F00100C5F89800FFF709FB07462E
:1013100005E000BFFFF704FBC01B022857D8D5F833
:1013200098008007F6D510E020F00100C5F898007D
:10133000FFF7F6FA074604E0FFF7F2FAC01B0228AF
:1013400071D8D5F898008007F6D4A06AF0B30C2EB7
:1013500071D00228286820F0807028601AD0286890
:10136000000103D4E86820F00300E860E868084959
:101370000840E860FFF7D4FA044657E00010024046
:10138000803100083C000020300000200070004048
:10139000FFFFEEFEFFF7C4FA064604E0FFF7C0FACF
:1013A000801B02283FD828688001F7D4F4E90B019C
:1013B0006FF00F0202EB01110843218A4908520421
:1013C00002EB4151A26841EA022101E064E02AE017
:1013D0000843217D4FF07E42490802EB41610843FA
:1013E000217B40EAC160E9682C4A11400843E8606B
:1013F000286840F080702860E86840F08070E860FD
:10140000FFF78EFA044604E0FFF78AFA001B022871
:1014100009D828688001F7D53EE000BFFFF780FAC1
:10142000001B022802D90320BDE8F8832868800148
:10143000F4D431E0FFE70128F6D0E868E26A00F072
:101440000301914226D1216B00F07002090110398D
:1014500091421FD1626B00F4FE41B1EB022F19D112
:1014600094F8382000F07841B1EBC26F12D1A18F0F
:1014700000F4C00249084905A1F50011914209D1C3
:1014800094F8401000F0C06049084906A1F10071CD
:10149000814201D00120C7E70020C5E78C809D0173
:1014A00010B5401EB0F1807F01D3012010BD4FF078
:1014B000E02460610F21601701F04CF90020A06169
:1014C00007202061002010BD704770477047000062
:1014D00070B590F83C20012A21D0012480F83C40CE
:1014E000022280F83D2003685A689D680D4EB34281
:1014F00003D122F470064A68324322F070060A686B
:101500008968324325F0800529435A60026891605A
:1015100080F83D40002180F83C10084670BD022054
:1015200070BD0000002C014010B5040003D094F8F9
:101530003D0010B107E0012010BD002084F83C0000
:10154000204600F00DF8022084F83D00211D20689F
:1015500000F054FE012084F83D00002010BD000082
:1015600010B586B0044614216846FEF766FE206872
:10157000B0F1804F26D11448816D41F001018165A1
:10158000816D01F001010591C16C41F00101C1645F
:10159000C06C694600F001000590222000900220F6
:1015A0000190002002900390012004904FF09040A1
:1015B000FFF7E8F8002211461C20FFF715FA1C205F
:1015C000FFF704FA06B010BD0010024070B50446E3
:1015D00090F83C00012817D0012584F83C500220E7
:1015E00084F83D00226890682E4B184020F47F401C
:1015F00090600868502830D00DDC20284DD005DCE4
:1016000098B310283BD148E0022070BD302844D068
:10161000402834D139E0602828D0702806D0B0F5B1
:10162000805F2CD0B0F5005F29D10AE0CB68D1E90A
:101630000121206800F025FE2068816841F07701D3
:1016400009E0CB68D1E90121206800F01AFE20688A
:10165000816841F48041816011E0CA68496820686E
:1016600000F021FE5021206807E016E0CA684968B2
:10167000206800F051FE6021206800F00CFE84F824
:101680003D50002084F83C0070BDCA68496820685D
:1016900000F009FE40212068EFE72268014610466D
:1016A000EBE7000088FFFEFF10B5017F194C012910
:1016B00002D0022907D00CE0616851B9002100F086
:1016C000FDF9606005E0A16819B9042100F0F6F9A0
:1016D000A0606168A2680120914204D9A16811B19B
:1016E0006168A26808E06168A268914211D26168ED
:1016F00000290ED0A1686268891AE160207000217B
:10170000054800F0E7F8BDE810400421024800F069
:10171000E1B810BD00000020400000202DE9F0419C
:10172000044690F83C000D4601283DD0012684F87F
:101730003C60022084F83D00AAB3042A46D0206809
:10174000082A55D0D5E90027E968036A23F48053B5
:101750000362D0F81CC0036A2CF4407C4CEA0727D3
:101760004FF6FF7C27F470470CEA013139434FF400
:10177000204723F4204307EA02321A43C161026280
:101780002068C16921F44061C1612068C169AA680B
:1017900041EA0221C0F81C1084F83D60002084F862
:1017A0003C00BDE8F08101E00220FAE7D5E9001233
:1017B000EB68206800F088FD2068816921F00C0149
:1017C000816120688169AA6811430FE0D5E90012A0
:1017D000EB68206800F0B2FD2068816921F4406167
:1017E000816120688169AA6841EA02218161D3E7A9
:1017F000D5E9002C2F7B016A21F480710162C16957
:10180000036A21F0030141EA0C0121F0F00C3907D1
:101810004FF420674CEA116123F4206307EA0222A7
:101820001A43C16102622068C16921F00C01C161E3
:101830002068C169AA681143ACE710B5040003D061
:1018400094F83D0010B107E0012010BD002084F89D
:101850003C00204600F00CF8022084F83D00211DD9
:10186000206800F0CBFC012084F83D00002010BD72
:101870007047000010B50268044631B1042908D051
:1018800008291DD00C2908D11EE0D06840F00200C4
:1018900002E0D06840F00400D0600122206800F02F
:1018A000E3FC206881680A4A1140062906D0B1F598
:1018B000803F03D0016841F001010160002010BDAC
:1018C000D06840F00800E7E7D06840F01000E3E798
:1018D0000700010010B50268044631B1042908D0A0
:1018E00008291ED00C2908D11FE0D06820F0020082
:1018F00002E0D06820F00400D0600022206800F0F0
:10190000B3FC2068016A41F21112114207D1016A49
:101910009210114203D1016821F001010160002001
:1019200010BDD06820F00800E6E7D06820F0100075
:10193000E2E770B50446006801694FF00005C9434D
:10194000890715D4C168C943890711D4E91E01610B
:1019500001202077206880698007204602D0FFF7A9
:10196000A3FE04E000F0A7F8204600F0A5F82577D4
:1019700020680169C943490717D4C168C9434907A9
:1019800013D46FF004010161022020772068806980
:1019900010F4407F204602D0FFF786FE04E000F0FE
:1019A0008AF8204600F088F8257720680169C94345
:1019B000090716D4C168C943090712D46FF008019A
:1019C0000161042020772068C0698007204602D08A
:1019D000FFF76AFE04E000F06EF8204600F06CF8B5
:1019E000257720680169C943C90617D4C168C9436E
:1019F000C90613D46FF01001016108202077206818
:101A0000C06910F4407F204602D0FFF74DFE04E08D
:101A100000F051F8204600F04FF825772068016962
:101A2000C943C90708D1C168C943C90704D1891E80
:101A30000161204600F041F820680169C9430906A8
:101A400009D4C168C943090605D46FF0800101615A
:101A50002046FFF73AFD20680169C943C90509D44A
:101A6000C168C943090605D46FF48071016120463D
:101A7000FFF72AFD20680169C943490609D4C168F6
:101A8000C943490605D46FF040010161204600F0CA
:101A90002AF820680169C94389060BD4C168C94383
:101AA000890607D46FF0200101612046BDE870402F
:101AB000FFF70CBD70BD70477047704702460020AD
:101AC00041B1042909D008290AD00C2901D1106894
:101AD000006C70471068406B70471068806B7047EF
:101AE0001068C06B7047704710B5040002D0606F7B
:101AF00010B107E0012010BD002084F870002046DE
:101B000000F026F8242060672068016821F00101B8
:101B10000160204600F0BEFC0128ECD0606A10B1E4
:101B2000204600F026FC2068416821F49041416085
:101B30002068816821F02A0181602068016841F0F5
:101B4000010101602046BDE8104000F076BC0000B5
:101B5000F0B587B0044614216846FEF76EFB1849BD
:101B60002068884229D11748816D41F40031816590
:101B7000816D01F400310591C16C41F00101C16436
:101B8000C06C022500F001000590042000268DE8BD
:101B9000610003240720CDE903404FF090476946D8
:101BA0003846FEF7EFFDA803CDE90005CDE9026454
:101BB000694604943846FEF7E5FD07B0F0BD000025
:101BC0000044004000100240FEE710B5012000F084
:101BD00005F8BDE810400520FEF7C2BD10B504466B
:101BE000002204214FF09040FEF795FE200900F0FE
:101BF00006F804F00F00BDE81040AFF3008070B5A8
:101C0000044600F008024FF0904508212846FEF7F0
:101C100082FE04F0040210212846FEF77CFE04F048
:101C2000020201212846FEF776FE04F0010240215F
:101C30002846FEF770FE012280212846FEF76BFE43
:101C4000322000F035F8002280212846FEF763FE9E
:101C5000BDE87040322000F02BB8000008B509A2A2
:101C600002291268009200D30021074AD070117136
:101C70001DF801100844C0B240F08000FFF7AEFF2D
:101C800008BD0000004014542800002010B5044690
:101C9000012204214FF09040FEF73DFE2009FFF79E
:101CA000AEFF04F00F00BDE81040FFF7A8BF000032
:101CB0002DE9F0414FF0E024064660694FF47A7157
:101CC000401CB0FBF1F5A069B0FBF5F0C0F57A77E8
:101CD000FEF726FE00EB4001C1EBC01007EBC0078A
:101CE0004FEA0408D8F81800B0FBF5F0C0F57A7494
:101CF000FEF716FE00EB4001C1EBC01004EBC00084
:101D0000C01BB042EED3BDE8F08100000449087862
:101D100040F00400087040F00800FFF75FBF0000CB
:101D2000280000202DE9F04385B0012402254FF062
:101D300000080426CDE90064CDE902854FF0904902
:101D400069464846FEF71EFD8020009069464846D9
:101D5000FEF718FD2002009069464846FEF712FD86
:101D60004020009069464846FEF70CFD694648460B
:101D70000094FEF707FD1020009069464846FEF7E4
:101D800001FD0827694648460097FEF7FBFC02E084
:101D90000120FEF7E5FCFEF7C3FDC828F8D3194C77
:101DA000032084F8038084F804806770FFF727FF1E
:101DB0000520FEF7D5FC0320FFF721FF0520FEF7E5
:101DC000CFFC0320FFF71BFF0520FEF7C9FC022014
:101DD000FFF715FF0520FEF7C3FC607840F02000F8
:101DE000FFF7FCFE2670FFF791FFFFF7EEFEA570F0
:101DF0000620FFF7F3FE0520FEF7B2FC05B0BDE8B4
:101E0000F08300002800002070B51546FFF726FF7C
:101E1000134C15E0E078102807D30020E0702179FA
:101E2000491CC9B22171FFF719FF28780A280BD085
:101E30000D280FD0FFF72AFFE078401CE0706D1CE2
:101E400028780028E6D170BD2079401CC1B22171EC
:101E5000E07801E021790020FFF700FFEFE70000C4
:101E60002800002010B586B014216846FEF7E5F979
:101E70001548C16C41F00401C164C16C01F004015A
:101E80000591C16C41F00101C164C16C01F0010117
:101E90000591C16C41F00201C164C06C0B4C00F0B3
:101EA00002000590002208212046FEF734FD08209C
:101EB000009001200021CDE90101039169462046EF
:101EC000FEF760FC06B010BD0010024000040048A0
:101ED00010B58CB0002405941B4804940694079414
:101EE00008940A9409940094019402944FF080415C
:101EF0000394C0E90014611EC0E9024104618461D9
:101F0000FFF712FB4FF48050049004A90E48FFF72E
:101F10005DFB0D48FFF791FC089408A90A480A9454
:101F2000FFF7D6FA0120CDE900400294002269466D
:101F300005480394FFF7F2FB042269460248FFF7C5
:101F4000EDFB0CB010BD000040000020094808491E
:101F500001604FF4E1314160002181600C22C160D9
:101F6000C0E904128161C16101624162FFF7BCBD39
:101F70000044004080000020FEE7704770470000EA
:101F80002DE9F041444C05468846E068002681076B
:101F900028680DD0E16801F00301814216D1A8B193
:101FA000E0686968C0F30210401C88420ED120E04E
:101FB000012804D0022805D0032807D108E02168B1
:101FC000890701E021684905002907DB01265FE058
:101FD0002168890302D421684903F5E7E1686A684A
:101FE0006FF00F0321F0730103EB02121143014361
:101FF000E160206820F080602060FEF791FC0746D9
:1020000005E000BFFEF78CFCC01B022837D8206813
:102010000001F7D4B8F1000F18D0B8F1010F1DD0AE
:10202000287D4FF07E41400801EB4060A96840EAFE
:1020300001202169194A114008432061206840F0BD
:1020400080602060FEF76CFC07461AE0A868297BD8
:10205000000240EAC1602169114AECE7288A11496F
:10206000400801EB4050A96840EA012021690E4A6E
:10207000E1E700BFFEF754FCC01B022801D903268C
:1020800006E020680001F5D52069A96908432061B0
:102090003046BDE8F081000000100240FF80FFF9EB
:1020A000FF80FF070000E0FFFF809FFFF8B51C4D99
:1020B00006460024A86DC00002D5FEF7FBFC0DE02B
:1020C000A86D40F08050A865A86D00F08050009089
:1020D000FEF7F0FCA96D21F08051A965B0F5007FF5
:1020E00004D0802E07D94FF003040AE0802E08D9CF
:1020F000A02E01D804E001D1022402E0702E00D10C
:1021000001240848016821F00701214301600068AB
:1021100000F00700A04201D00120F8BD0020F8BD6A
:1021200000100240002002407047FEF7FFBB000095
:1021300010B5ACB044216846FEF77FF8142126A8FC
:10214000FEF77BF8542111A8FEF777F8FEF7BAFCEA
:10215000154850F8901F21F01801016014200090DC
:10216000012000240290CDE90604702008900A9412
:102170006846FEF703FF0F20CDE926042894299432
:10218000002126A82A94FEF7F3FD022011901A944C
:1021900011A8FEF7A7FC4FF40070FEF757FCFEF7FE
:1021A00099FC2CB010BD0000001002400D480168E1
:1021B00041F4700101600C48016841F001010160C7
:1021C000002181600268094B1A4002608214C260DB
:1021D000026822F48022026081610249C0038039D2
:1021E0000860704788ED00E000100240FFFFF6EA4B
:1021F0000148FFF79EBB00004000002070B5026858
:10220000164B4FF08046984201D0B04203D122F0E5
:1022100070044A682243124C124D984205D0B042D5
:1022200003D0A04201D0A84203D122F44076CA686C
:1022300032434E6922F08002324302608A68C262F1
:102240000A688262984203D0A04201D0A84201D11C
:10225000096901630121416170BD0000002C01404A
:10226000004001400044014010B501F01F0301216E
:10227000046A99408C430462016A9A4011430162E6
:1022800010BD10B5846842EA032224F47F440A4357
:102290002243826010BD826822F070020A4342F03D
:1022A00007018160704710B5036A046A24F00104D5
:1022B0000462846924F0F00444EA021423F00A0260
:1022C0000A438461026210BD70B5046A24F00104FF
:1022D00004628469056A0E4EB04205D0B0F1804FA9
:1022E00002D00C4EB04203D124F00304144301E0A9
:1022F00044F001041A0724F0F00444EA126225F0C5
:102300000A0301F00A0119438261016270BD0000F5
:10231000002C01400040014010B5036A23F0100377
:1023200003628369046A23F4704343EA023224F0AF
:10233000A00343EA01118261016210BD30B5046A55
:1023400024F0100404628469056A24F4407444EAA9
:10235000022222F470444FF6FF7202EA0332224353
:10236000A02425F0A00304EA01111943826101624F
:1023700030BD90F82410C90706D001684A68836A06
:1023800022F400321A434A6090F82410890706D5D7
:1023900001684A68C36A22F480321A434A6090F89E
:1023A0002410490706D501684A68036B22F480228D
:1023B0001A434A6090F82410090706D501684A6854
:1023C000436B22F400421A434A6090F82410C90675
:1023D00006D501688A68836B22F480521A438A60AA
:1023E00090F82410890606D501688A68C36B22F428
:1023F00000521A438A6090F82410490611D50168EA
:102400004A68036C22F480121A434A60016CB1F5E9
:10241000801F06D101684A68436C22F4C0021A4347
:102420004A6090F82410090606D501684A68806C55
:1024300022F4002202434A607047F8B500260446A1
:10244000C667FEF76DFA0546206800686FF07E47A4
:10245000000708D52B4600224FF4001120460097B4
:1024600000F032F960B92068006840070AD52B46B1
:1024700000224FF480012046009700F025F908B1B2
:102480000320F8BD20206067A06784F870600020FA
:10249000F8BD00002DE9F041044602688068236918
:1024A000E5691843636900272B4318437D49136886
:1024B0007D4D2B400343136020684268E36822F49B
:1024C00040521A4342602268A0698A4201D0236ABE
:1024D0001843936823F4306303439360734A23687B
:1024E000734893420DD1D0F8880010F0030006D055
:1024F000012838D0022834D0032821D135E0012525
:102500001FE06C4A93420BD1D0F8880010F00C0009
:1025100025D0042827D0082823D00C2810D124E067
:102520008B420DD1D0F8880010F4406017D0B0F580
:10253000806F18D0B0F5006F13D0B0F5406F14D095
:1025400010255D4A00264FF400408B4245D175B1FD
:10255000022D0FD0042D0FD0082D18D10FE000252B
:10256000EFE70225EDE70425EBE70825E9E7FEF7AD
:102570008FFC03E0104602E0FEF7AEFCA8B36268F1
:1025800002EB4201814202D8B0EB023F01D90127A0
:1025900075E0DFF828815DB1022D0CD0042D13D039
:1025A000082DF4D150082905401846F1000105E036
:1025B000FEF76EFC0AE050084149F5E70023FDF7FD
:1025C00001FEA0F5407156E0FEF786FC6268010E40
:1025D0000302500818187141F0E7E1694FF6EF78EF
:1025E00081422FD1092DD2D200E048E0DFE805F08A
:1025F00006092005230505052600C8E7FEF748FC67
:1026000001E0FEF757FC4100D4F8040001EB500153
:10261000B1FBF0F080B2A0F110014145B7D84FF600
:10262000F0710140C0F3420001432068C16026E020
:1026300024496068EAE7FEF74FFCE4E74FF4803195
:102640006068E3E7092DA2D2DFE805F006091E0560
:102650002205050525009AE7FEF71AFC01E0FEF7C2
:1026600029FC0146606801EB500100BFB1FBF0F0AE
:1026700080B2A0F11001414589D82168C860266662
:1026800038466666BDE8F081606802EB5001EDE710
:10269000FEF722FCE5E7616800EB5100B0FBF1F0CA
:1026A000E6E7000000800040F369FFEF00380140DA
:1026B00000100240004400400024F400FFFC0F0022
:1026C000000024F40048E8012DE9F041984617463F
:1026D0000E460446069D08E0681C06D0FEF720F969
:1026E000A0EB0800A8420BD855B12068C06936EAB3
:1026F000000017D00020B842EED00020BDE8F081E5
:102700002068016821F4D07101602068816821F09F
:102710000101816020206067A067002084F87000BC
:102720000320EBE70120E6E7FEE700000FB4084BCB
:1027300010B504A902AA039800F0F2F8044602A911
:10274000002000F087FC204610BC5DF814FB000060
:10275000553000080907090E002804DB00F1E020CD
:1027600080F80014704700F00F0000F1E02080F8BE
:10277000141D704702E008C8121F08C1002AFAD1D0
:1027800070477047002001E001C1121F002AFBD1F1
:10279000704700002DE9FF5F82B00021DDE90430C1
:1027A000020DDDF840B0034318D044F61050A2F2F9
:1027B000FF3242431514119801281FD0A5EB0B00DE
:1027C000401C5FEA000A4FF000064E4FDFF83891D8
:1027D000B046504615D5CAF1000413E01198012403
:1027E0004AA3012801D16FEA0B010298119AC0E9AE
:1027F0000031C0E9024206B000F08EB8CBF1000013
:10280000DFE704460021404A491842EB0450CDE975
:10281000001012E0E00707D032463B4640464946EA
:10282000FDF716FD8046894632463B46104619465E
:10283000FDF70EFD06460F466410002CEAD1DDE9D7
:102840000401DDE90023BAF1000F06DAFDF700FD0F
:1028500042464B46FDF7FCFC05E0FDF76EFD4246A7
:102860004B46FDF76AFD04460E460022284BFDF755
:1028700039FF03D84FF0FF30014607E00022254B17
:1028800020463146FDF767FEFDF714FF102409E0EE
:10289000002C0ADB0A220023FDF794FC039B303254
:1028A0001A55641E50EA0102F2D1641C039AC4F165
:1028B00011031444119A012A03D0012208430DD1B7
:1028C0000AE0084304D000204FF0110B119072E78A
:1028D000A3EB0B056D1E0DE05B4504DD4FF0000220
:1028E00005F1010504E003DA4FF00002A5F101054E
:1028F000002AECD002981199C0E90231C0E90045E4
:1029000079E70000000014400000F03F30000000B4
:102910000000F0430000E03F30BCBDE8C09F000075
:102920002DE9FF4F95B09B468946064600250FE2EC
:10293000252877D100242746F84A0121059400E094
:10294000044316F8013F203B01FA03F01042F7D18F
:1029500030782A2811D06FF02F033078A0F13002A0
:10296000092A16D8059A44F0020402EB820203EB0E
:1029700042021044761C0590EFE759F8042B0592AB
:10298000002A03DA504244F40054059044F0020453
:10299000761C30782E2816D116F8010F44F0040466
:1029A0002A280DD06FF02F023078A0F13003092BC8
:1029B00009D807EB870302EB4303C718761CF3E73C
:1029C00059F8047B761C30786C280FD006DC4C2834
:1029D00017D068280DD06A2814D104E0742810D0CC
:1029E0007A280FD10DE044F400140AE044F4801476
:1029F00001E044F440147278824202D104F580145C
:102A0000761C761C307866280BD013DC582877D0DB
:102A100009DC002875D04528F6D04628F4D0472890
:102A20001AD19DE118E0632835D0642879D0652853
:102A300012D195E1702873D008DC6728F1D069289D
:102A40006FD06E280DD06F2806D1B5E073282CD03A
:102A5000752875D0782874D05A46179990476D1C00
:102A600075E1C4F30250022809D003280DD0D9F82B
:102A7000001004280DD00D6009F1040967E1D9F8B0
:102A80000010EA17C1E90052F6E7D9F800100D80EE
:102A9000F2E70D70F0E719F8041B8DF80010002024
:102AA0008DF80100EA46012003E059F804AB4FF02D
:102AB000FF3061074FF0000102D40DE008F1010181
:102AC0008846B9420FDA8045F8DB1AF80810002969
:102AD000F4D108E008F1010188468142FADB1AF8D6
:102AE00008100029F6D105985B46A0EB080721469F
:102AF0003846179A00F097FA284400EB080507E0DB
:102B00004DE029E10DE01AF8010B5A46179990475C
:102B1000B8F10108F7D25B4621463846179A13E10F
:102B200042E00A220092C4F302524FF0000A022A45
:102B300008D059F804CB032A4FEAEC710AD00DE013
:102B400029E02AE009F1070121F00702F2E802C1B9
:102B5000914609E00FFA8CFC4FEAEC71042A03D18C
:102B60004FFA8CFC4FEAEC71002907DA0A46002183
:102B7000DCF1000C61EB02012D2202E0220504D5FC
:102B80002B228DF80420012203E0E20701D020224D
:102B9000F7E7904659E00A2102E010220DE01021EB
:102BA0004FF0000A00910BE010224FF0000A44F0B1
:102BB00004040827009203E008224FF0000A009264
:102BC000C4F30252022A05D059F804CB0021032A8B
:102BD00008D009E009F1070121F00702F2E802C17B
:102BE000914605E01FFA8CFC042A01D10CF0FF0C81
:102BF0004FF00008220728D5702806D0009B83F0EC
:102C0000100353EA0A0305D00EE040228DF8042099
:102C1000012208E05CEA010206D030228DF804208F
:102C20008DF8050002229046009B83F0080353EACA
:102C30000A030AD15CEA010201D1620705D53022FC
:102C40008DF804204FF001087F1E582804D034A0CE
:102C500003900EA802900DE036A0F9E753466046B7
:102C6000009AFDF7AFFA84460398825C0298401EF2
:102C7000029002705CEA0100F0D1029806A9081ADD
:102C800000F1200A600702D524F4803400E0012717
:102C9000574502DDA7EB0A0000E0002000EB0A0127
:102CA000009005984144401A0590E00306D45B4625
:102CB0002146179A059800F0B6F90544002706E06A
:102CC00001A85A46C05D179990476D1C7F1C474567
:102CD000F6DBE0030CD55B462146179A059800F019
:102CE000A2F9054404E030205A46179990476D1C1C
:102CF0000099481E00900029F5DC08E0029802992E
:102D00005A460078491C0291179990476D1CBAF1F8
:102D10000001AAF1010AF1DC65E1000009280100C7
:102D20003031323334353637383961626364656641
:102D30000000000030313233343536373839414203
:102D4000434445460000000000F05BF90544761C52
:102D5000307800287FF4ECAD19B0284600F04EB969
:102D6000620700D4062709F1070222F0070CFCE8ED
:102D70000223E14603F000485FEA080C02D00FF29C
:102D8000702C0DE05FEA045C02D50FF2682C07E0BE
:102D90005FEAC47C02D00FF2602C01E0AFF2700C4D
:102DA0004FF0FF3823F00043CDF850C065280CD019
:102DB00006DC452809D046281DD047283DD13DE0F6
:102DC000662818D067287ED138E00021112F01DB5A
:102DD000112000E0781CCDE9000106A90EA8FFF73C
:102DE000D9FCDDE90F010E9A03910021009207F151
:102DF000010A04914DE04FF000400097CDE9011029
:102E000006A90EA8FFF7C6FCDDE90F0203920E9B90
:102E100011990022DDF80CA00093049211B9791CDD
:102E200000EB010AB7EB0A0004D4C0F1FF3007F150
:102E3000010A0490AAEB0700019044E0012F00DA98
:102E400001270021112F01DD112000E03846CDE9D6
:102E5000000106A90EA8FFF79DFCDDE90F010E9AFF
:102E60000391002104910092BA4621070CD40399E2
:102E7000514500DA8A46BAF1010F05DD009AAAF140
:102E80000101515C302908D0B84202DA10F1040F78
:102E900006DA0121CDE9011015E0AAF10101E9E707
:102EA000002805DC049901440491AAEB000102E02A
:102EB000411C514500DD8A460499401A401C01908E
:102EC0004FF000400290200704D40198504501DBE8
:102ED000CDF8048000208DF84F0002980DF14F07C7
:102EE000B0F1004F25D02B200E9002984FF0020831
:102EF00000280CDA404202902D200E9007E00A21B3
:102F00000298FDF796FA3031029007F8011DB8F1EA
:102F10000001A8F10108F2DC02980028EFD1791E27
:102F20000E980870307800F0200040F0450007F857
:102F3000020D12A8C01B00F107081498007800B118
:102F4000012000EB0A01019801EBE0710598414472
:102F5000401A401E0590E00306D45B462146179AAE
:102F6000059800F060F805441498007818B15A46A6
:102F7000179990476D1CE00324D55B462146179AAC
:102F8000059800F050F805441CE00498002807DB81
:102F9000DDE90301884203DD0098405C179901E0F8
:102FA000179930205A469047049805F10105401CB6
:102FB00004900198401E019004D12E205A46179982
:102FC00090476D1CBAF10001AAF1010ADDDC05E0B1
:102FD00017F8010B5A46179990476D1CB8F100017C
:102FE000A8F10108F4DC5B462146179A0598ABE688
:102FF0002D0000002B0000002000000030BCBDE8C8
:10300000C08F2DE9F041044600251E46174688046E
:1030100004D405E039462020B0476D1C641EF9D564
:103020002846BDE8F0812DE9F041044600251E4602
:103030009046C80301D5302700E02027880404D536
:1030400005E041463846B0476D1C641EF9D5284658
:10305000BDE8F0810A68531C0B60107070470000D7
:103060002DED028B84B0FDF769FCFFF761F8FEF7E8
:10307000F9FEFEF76BFFFEF72BFFFEF753FE002174
:1030800030A20846FEF7C0FE32A201210020FEF762
:10309000BBFE31A201210D20FEF7B6FE00212F4814
:1030A000FEF7E8FB04212D48FEF7E4FB2C4C2078CA
:1030B0000128FCD12B480068FDF7AEF941EC100B5C
:1030C00053EC102B9FED280B51EC100BFDF735F94D
:1030D00041EC180BE068FDF79FF953EC182BFDF756
:1030E000B7F841EC180B9FED220B84ED048B53ECE9
:1030F000102B94ED080B51EC100BFDF7A9F853ECD5
:10310000182BFDF71AF941EC100B1BA184ED060BEF
:1031100053EC102B6846FFF709FB6A46012100209B
:10312000FEF772FE00206060A06020700B49096805
:10313000486201460948FEF79DFB04210748FEF757
:1031400099FBB4E74372756973696E6720737065A4
:1031500065643A00302E30004D2F530040000020AF
:10316000000000203C0000200000000080842E4170
:103170000000000000002440252E3645000000001D
:103180000000000000000000010203040607080917
:10319000A0860100400D0300801A060000350C00D7
:1031A00040420F0080841E0000093D0000127A009A
:1031B0000024F40000366E010048E801006CDC02D7
:1031C0000000000001020304E831000800000020B4
:1031D000400000007427000828320008400000204A
:1031E000C004000084270008000000000000000068
:1031F00000000000000000000000000000000000CF
:103200000000000000000000000000000000294055
:10321000000000000000000010000000010000009D
:083220000000000000093D0060
:040000050800018D61
:00000001FF
